:0300000002032ACE
:0C032A00787FE4F6D8FD75812002037195
:100003007D017F48120566900654E493FD7F6812D4
:100013000566900655E493FD7F6A120566900656C1
:10002300E493FD7F6C120566900657E493FD7F6EA3
:0500330012056680FECD
:100459005389F0438901438E80C2A9758CFF758A3F
:0B04690091C28DD28C308DFDC28C2220
:100474005389F0438901438E80C2A9758CFE758A25
:0B04840057C28DD28C308DFDC28C223F
:10048F005389F0438901438E80C2A9758CEA758A1E
:0B049F0067C28DD28C308DFDC28C2214
:1004AA005389F0438901438E80C2A9758CD4758A19
:0B04BA00CDC28DD28C308DFDC28C2293
:1004C5005389F0438901438E80C2A9758C28E4F5D0
:0B04D5008AC28DD28C308DFDC28C22BB
:1004E0005389F0438901438E80C2A9758C50E4F58D
:0B04F0008AC28DD28C308DFDC28C22A0
:1004FB005389F0438901438E80C2A9758C7B758A21
:0B050B003AC28DD28C308DFDC28C22D4
:100516005389F0438901438E80C2A9758CA0E4F506
:0B0526008AC28DD28C308DFDC28C2269
:100531005389F0438901438E80C2A9758C90E4F5FB
:0B0541008AC28DD28C308DFDC28C224E
:10054C00D2907F301205D31204C57F0C1205D31242
:0A055C0004C57F011205D30204C597
:1005D300C293C294C2958F801204C5D2951204C5EA
:0305E300C295229C
:1005E600D293C294C2958F801204C5D2951204C5C7
:0305F600C2952289
:10043900EF70047F808013BF01047F90800CBF029E
:10044900047F888005BF03027F98EF2DFF0205D343
:10064400D2B7C2B6758910D2AFD2ABC28EC28F22D6
:0B003800D2B6120459120459C2B622BD
:1003B600E4F58DF58BC28F12003830B7FDD28E2052
:1003C600B7FDC28E308F0875082775090F8030AFCC
:1003D6008DEFFEAD8B7C00E42DFFEC3EFEAD07FC01
:1003E600E41202497BC57A207930783E12013EE458
:1003F600FBFAF9783F12004D1202828E088F09AE81
:0304060008AF0933
:0104090022D0
:10059700E4F5D875D902F5E9F5F975DA42F5EAF522
:0405A700FAD2DE2284
:09068700C374FF9FF5EAF5FB22A4
:1005AB00E4F5D875D902F5E9F5F975DB42F5EBF50C
:0405BB00FBD2DE226F
:09069000C374FF9FF5EBF5FB229A
:0206B900C1007E
:1005F900438E04759850438E01759CFD53877F4344
:030609008E10222E
:10063200759A50438E04759CFD438E1043AF01D2D0
:02064200AF22E5
:0300430002058033
:10058000C0E0E59A30E003539AFEE59A30E1055366
:070590009AFDC200D0E03229
:080699008F993099FDC29922EE
:0806A1002000FDD2008F9B2216
:10060C00120303FF600C120699740129F9E43AFAFB
:03061C0080EE224B
:10061F00120303FF600C1206A1740129F9E43AFAE0
:03062F0080EE2238
:0B0672008F9DE4F5BD75BC80020459AB
:1005BF00EF4488F5BC00000000E5BC30E4FB53BC01
:0405CF00EFAFBD22AB
:100654003F065B4F666D7D077F6F777C395E7971EE
:06067D00D2A1D2A07F0112
:040683008F0A0022B8
:0806A90012067DC2A0020683C7
:0E066400D2A1C2A07F01120683D2A00206839B
:0806B10012067DC2A1020683BE
:02040A00AE073B
:10040C007F01120683C2A1E4FDEE20E704C2A080A6
:10041C0002D2A0EE25E0FEC2A17F01120683D2A17A
:0C042C00120683C2A11206830DBD08DD7C
:0104380022A1
:10056600AC05AE071206A9AF0612040A1206B1AF11
:0A0576000412040A1206B102066422
:100046000202EEE86480F8E933E83360110460F0F8
:10005600ED33EC337009E8FCE9FDEAFEEBFF220420
:1000660060DED3EB9FEA9EE99DE8C2E78CF0C2F71B
:1000760095F0400CE8CCF8E9CDF9EACEFAEBCFFBE7
:100086001202B985D0F05804700320D5B3E8047085
:10009600075002B2D50202F892D5EC0460F7E4CC20
:1000A600C0E0C398F8603B94186008400DD0E0FBB0
:1000B6000202D0E4FBFAC9FC8028E830E406E4C971
:1000C600FBE4CAFCE830E305E4C9CACBFCE8540704
:1000D6006010F8C3E913F9EA13FAEB13FBEC13FC0F
:1000E600D8F130F52FC3E49CFCEF9BFFEE9AFEEDB2
:1000F60099FDD0E0FBEF4E4D4C701222DB0302025D
:10010600F5EC2CFCEF33FFEE33FEED33FDED30E77F
:10011600EB0202D0EF2BFFEE3AFEED39FDD0E0FB0D
:1001260050130BBB00030202F8ED13FDEE13FEEFB6
:0801360013FFEC13FC0202D0E0
:10013E00EC4D6011E8497017ED33EC3304600DE4BB
:10014E00FCFFFEFD22E933E8330470F80202EE12E2
:10015E0002B958046009E4CC2481500628500902E3
:10016E0002F82840030202F5C0E0EB4A7044B98061
:10017E0006D0E0FB0202E4EF4E701CBD8008EBFFE0
:10018E00EAFEE9FD80EBE98DF0A4FEE5F002022720
:10019E00E9CDF9EAFEEBFFEF89F0A4FCE5F0CE899C
:1001AE00F0A42EFFE435F0CD89F0A42DFEE435F059
:1001BE008067EF4E7005BD80D780C3EF8BF0A4AC87
:1001CE00F0EE8BF0A42CFCE435F0F8EF8AF0A42CC2
:1001DE00E5F038FCE433CB8DF0A42CFCE5F03BF8D5
:1001EE00EE8AF0A42CFCE5F038F8E433CF89F0A4C5
:1001FE002CFCE5F038CF3400CE89F0A42FFFE5F0CB
:10020E003EFEE433C98DF0A42EFEE5F039CD8AF022
:10021E00A42FFFE5F03EFEE43DFD33D0E0FB50079A
:10022E000BBB000F0202F8EC2CFCEF33FFEE33FE9B
:06023E00ED33FD0202D0C9
:1002440075F020800E75F010800575F0087D007E35
:10025400007F003392D530D50312031CEC334010D9
:10026400EF33FFEE33FEED33FDEC33FCD5F0ED223E
:0E027400E5F0247EA2D513CC92E7CDCEFF227A
:10028200EDD2E7CD33EC3392D524814006E4FFFE74
:10029200FDFC22FCE4CFCECDCC24E0501174FF80D3
:1002A200EDC3CC13CCCD13CDCE13CECF13CF047070
:0702B200F030D5DE02031C51
:1002B900E9D2E7C933E833F892D5EDD2E7CD33EC8B
:0702C90033FC5002B2D52204
:1002D000EC30E7100FBF000C0EBE00080DBD00048F
:1002E0000BEB6014A2D5EB13FCED92E7FD2274FF3B
:1002F000FCFDFEFF22E480F8A2D574FF13FC7D8094
:03030000E480EFA7
:10033600020003E493A3F8E493A34003F68001F2DA
:1003460008DFF48029E493A3F85407240CC8C333C8
:10035600C4540F4420C8834004F456800146F6DF97
:10036600E4800B01020408102040809006B9E47E68
:10037600019360BCA3FF543F30E509541FFEE4938C
:10038600A360010ECF54C025E060A840B8E493A353
:10039600FAE493A3F8E493A3C8C582C8CAC583CA7E
:1003A600F0A3C8C582C8CAC583CADFE9DEE780BE36
:0106BB00003E
:10030300BB010689828A83E0225002E722BBFE02F8
:09031300E32289828A83E493222B
:0E031C00C3E49FFFE49EFEE49DFDE49CFC22F2
:00000001FF
